:020000040000FA
:06000000B3EF05F0120051
:020006001200E6
:08000800DACFE4FFE2CFDAFFDA
:10001000E9CFE4FFEACFE4FFF6CFE4FFF7CFE4FF58
:10002000F5CFE4FFF3CFE4FFF4CFE4FFFACFE4FF32
:1000300000EE00F0100EE80403E3EECFE4FFFBD780
:1000400000EE10F00E0EE80403E3EECFE4FFFBD762
:10005000E652F2A402D025D8F294E55200EE1DF04B
:100060000E0EE80403E3E5CFEDFFFBD700EE0FF043
:10007000100EE80403E3E5CFEDFFFBD7E5CFFAFF71
:10008000E5CFF4FFE5CFF3FFE5CFF5FFE5CFF7FFD1
:10009000E5CFF6FFE5CFEAFFE5CFE9FFE5CFDAFFF1
:1000A0001100F30ED76ECA0ED66E0F01010E0A6F45
:0200B00012003C
:0E00B2000100B40B00000A0F00000500000062
:1000C000D9CFE6FFE1CFD9FF080EE126330EDF6E70
:1000D000DE52320EDD6E280EF36E020EF3CFDBFF22
:1000E0000C0EF36E030EF3CFDBFF010EF36E040E66
:1000F000F3CFDBFF060EF36E050EF3CFDBFF060E2C
:10010000DB6A070EDB6A800E0F013B170A0EE66EF4
:1001100076EC05F0E552070EDB500F01D924E96EAD
:10012000000EDA20EA6EEF5012E0D9CF10F0DACFED
:1001300011F0070EDBCFF3FFDB2AF350D924E96E71
:10014000000EDA20EA6EEF50E66E0BD8E3D7080E09
:10015000E15C02E2E16AE552E16EE552E7CFD9FFE8
:100160001200D9CFE6FFE1CFD9FF8398839A839C11
:10017000FE0EDB380F0B0F0BE66E25D8E552FE0E98
:10018000DB500F0BE66E1FD8E55236D8E552E7CFAD
:10019000D9FF1200D9CFE6FFE1CFD9FF8388839A38
:1001A000839CFE0EDB380F0B0F0BE66E0CD8E5526E
:1001B000FE0EDB500F0BE66E06D8E5521DD8E55259
:1001C000E7CFD9FF1200D9CFE6FFE1CFD9FF800EEC
:1001D0009516FE0EDBCFE6FFF00E8314E552E71016
:1001E000836E838C020EE66ECFEC05F0E552839CA5
:1001F000E552E7CFD9FF1200D9CFE6FFE1CFD9FF13
:10020000030EE1260F0E9512838A8398839C838CBC
:1002100000008350100D010EF3CFDBFF839C838C15
:1002200000000F0E8314DF6E839C010EDB50DF1085
:10023000E76E020EE7CFDBFF020EDBBEE8D7030E50
:10024000E15C02E2E16AE552E16EE552E7CFD9FFF7
:100250001200D9CFE6FFE1CFD9FFFE0EDBCFE6FFDC
:1002600080DFE552FC0EDBCFF6FFFD0EDBCFF7FFA4
:100270000800F5500EE0FC0EDBCFF6FFDB2AFD0E8A
:10028000DBCFF7FF01E3DB2A0800F550E66E82DFE3
:10029000E8D7E552E7CFD9FF1200D9CFE6FFE1CF8B
:1002A000D9FFFE0EDBCFE6FF5CDFE552FC0EDBCFB5
:1002B000E9FFFD0EDBCFEAFFEF500DE0FC0EDBCFD8
:1002C000E9FFDB2AFD0EDBCFEAFF01E3DB2AEF507B
:1002D000E66E60DFEAD7E552E7CFD9FF1200D9CF4B
:1002E000E6FFE1CFD9FFE652FC0EDBCFE6FF39DFB8
:1002F000E552DF6AFB0EDB50DF5C0FE2FD0EDBCF69
:10030000E9FFDB2AFE0EDBCFEAFF01E3DB2AEF5039
:10031000E66E40DFE552DF2AEDD7E552E552E7CF42
:10032000D9FF1200D9CFE6FFE1CFD9FFE652FE0E8A
:10033000DBCFE6FF16DFE552DF6AFD0EDB50DF5C48
:1003400006E2200EE66E26DFE552DF2AF6D7E552FA
:10035000E552E7CFD9FF1200D9CFE6FFE1CFD9FFB1
:10036000E652DF6AFC0EDB50DF5C12E2300E106EEC
:10037000DF50E76EFD0EDBCFE9FFFE0EDBCFEAFFBD
:10038000E750E926000EEA221050EF26DF2AEAD7CE
:10039000E552E552E7CFD9FF1200D9CFE6FFE1CF12
:1003A000D9FFE652DF6AFC0EDB50DF5C12E20F0E73
:1003B000106EDF50E76EFD0EDBCFE9FFFE0EDBCFE8
:1003C000EAFFE750E926000EEA221050EF16DF2A76
:1003D000EAD7E552E552E7CFD9FF1200D9CFE6FFC1
:1003E000E1CFD9FF0A0E106E0C6EFE0EDBCF07F0C8
:1003F000C1EC05F00350300FE66E020EE76EFC0E06
:10040000DBCFE9FFFD0EDBCFEAFFE750E926000E68
:10041000EA22E552E750EF6E0A0E106E0C6EFE0EE9
:10042000DBCF07F0C1EC05F0FE0E07C0DBFF0A0EC4
:10043000106E0C6EFE0EDBCF07F0C1EC05F0035022
:10044000300FE66E010EE76EFC0EDBCFE9FFFD0E0E
:10045000DBCFEAFFE750E926000EEA22E552E7503B
:10046000EF6E0A0E106E0C6EFE0EDBCF07F0C1ECC5
:1004700005F00750300FE66EFC0EDBCFE9FFFD0EF6
:10048000DBCFEAFFE552E750EF6EE552E7CFD9FF49
:100490001200D9CFE6FFE1CFD9FFE652DF6A040EA2
:1004A000DF5C3EE2FD0EDBCF10F0FE0EDBCF11F085
:1004B0000A0E0B6E0C6A10C006F011C007F08DEC2E
:1004C00005F002C010F003C011F0300E1026000E2F
:1004D0001122040ED880DF54E76EFB0EDBCFE9FF5C
:1004E000FC0EDBCFEAFFE750E926000EEA2210C03F
:1004F000EFFF0A0E106E116AFD0EDBCF06F0FE0E46
:10050000DBCF07F010C00BF011C00CF08DEC05F044
:10051000FD0E06C0DBFFFE0E07C0DBFFDF2ABFD7E4
:10052000300EE76EFD0EDBCF10F0FE0EDBCF11F0CC
:10053000E7501026000E1122FB0EDBCFE9FFFC0E68
:10054000DBCFEAFF10C0EFFFE552E552E7CFD9FF5E
:100550001200D9CFE6FFE1CFD9FFFD0EDBCFE9FFD7
:10056000FE0EDBCFEAFFEF500F0B146E156A14BEC0
:100570001568640E1502F3CF15F01402F3CF14F0D2
:10058000F4501526010EE76EFD0EDBCFE9FFFE0EDF
:10059000DBCFEAFFE750E926000EEA22EF500F0B0F
:1005A0000A0DF3CF16F0176A16BE176814501624FA
:1005B000126E15501720136E020EE76EFD0EDBCF84
:1005C000E9FFFE0EDBCFEAFFE750E926000EEA2244
:1005D000EF500F0B186E196A18BE196812501824C4
:1005E000106E1350192010C0F3FFF46EE552E7CFE0
:1005F000D9FF1200D9CFE6FFE1CFD9FFFD0EDBCF47
:10060000E9FFFE0EDBCFEAFFEF500F0B166E176A05
:1006100016BE1768E80E1702F3CF17F0030E160286
:10062000F3501726E80E1602F3CF16F0F4501726F3
:10063000010EE76EFD0EDBCFE9FFFE0EDBCFEAFF1A
:10064000E750E926000EEA22EF500F0B640DF3CFBE
:1006500018F0196A18BE196816501824146E17502D
:100660001920156E020EE76EFD0EDBCFE9FFFE0EC0
:10067000DBCFEAFFE750E926000EEA22EF500F0B2E
:100680000A0DF3CF1AF01B6A1ABE1B6814501A2405
:10069000126E15501B20136E030EE76EFD0EDBCF9E
:1006A000E9FFFE0EDBCFEAFFE750E926000EEA2263
:1006B000EF500F0B1C6E1D6A1CBE1D6812501C24CF
:1006C000106E13501D2010C0F3FFF46EE552E7CFFB
:1006D000D9FF1200D9CFE6FFE1CFD9FFFE0EDB38FC
:1006E0000F0B3009E66EFC0EDBCFE9FFDB2AFD0EB7
:1006F000DBCFEAFF01E3DB2AE552E750EF6EFE0EA7
:10070000DB500F0B3009E66EFC0EDBCFE9FFDB069A
:10071000FD0EDBCFEAFF01E2DB06E552E750EF6EAC
:10072000E552E7CFD9FF12008F0ED3145009D36ED4
:100730000F01386B030E926E396B936A8A6A3A6BBB
:10074000946A8B6A3C6B010E966E930ED56EF28A9C
:10075000C280090EC06EF19EF28E1200D9CFE6FF64
:10076000E1CFD9FF070EE126DE6ADD6A020EDB6A01
:10077000030EDB6A040EDB6A050EDB6A060EDB6A1B
:10078000D3DF190EE66E76EC05F0E55299DCCE0E5D
:10079000E66E0A0EE66E800EE66E5BDDE552E55211
:1007A000E552BA0EE66E0A0EE66EC00EE66E51DD3A
:1007B000E552E552E552640EE66E76EC05F0E55240
:1007C0007FDC0F010A51FDE00A6B020EDB2ADBCF52
:1007D00010F0030E01E3DB2ADBCF11F0010E10183D
:1007E00001E0D5D0115001E0D2D0020EDB6A030E39
:1007F000DB6A0F010F5101E0C6D084B023D08182A3
:100800000DCF0BFF0ECF0CFF010E0F6F59DCA90EA1
:10081000E66E0A0EE66EC00EE66E1BDDE552E55290
:10082000E552640EE66E76EC05F0E55249DC84B0E4
:100830001CD00A0EE66E76EC05F0E55281920F01AF
:100840000F6BF5D781A211D081929B0EE66E0A0E36
:10085000E66EC00EE66EFDDCE552E552E552640E32
:10086000E66E76EC05F0E5522BDC0F01105135E118
:1008700080B03AD00A0E0F010D250D6F000E0E212B
:100880000E6F0BCF0DFF0CCF0EFF0F01010E106F7F
:1008900080B02AD00A0EE66E76EC05F0E552980E8E
:1008A000E66E0A0EE66E800EE66ED3DCE552E55289
:1008B000E552860EE66E0A0EE66EC00EE66EC9DCE6
:1008C000E552E552E552640EE66E76EC05F0E5522F
:1008D00060EC00F00F01106BDBD780A005D060EC5E
:1008E00000F00F01010E106F115131E180B24FD0B5
:1008F0000A0E0F010D250D6F000E0E210E6F0F0158
:10090000010E116F80B243D00A0EE66E76EC05F050
:10091000E552830EE66E0A0EE66E800EE66E99DCF8
:10092000E552E552E552700EE66E0A0EE66EC00E16
:10093000E66E8FDCE552E552E552640EE66E76EC2B
:1009400005F0E55260EC00F00F01116BDBD780A2DF
:100950001ED0CE0EE66E0A0EE66E800EE66E79DCD6
:10096000E552E552E552BA0EE66E0A0EE66EC00E8C
:10097000E66E6FDCE552E552E55260EC00F00F01E7
:10098000010E116F04D084B002D081920F6B040E5F
:10099000DB2ADBCF10F0050E01E3DB2ADBCF11F001
:1009A0000A0E101801E00DD7115001E00AD7040E0D
:1009B000DB6A050EDB6A0F010C3509E20B510008FA
:1009C000000E0C5504E20B07000E0C5BFAD6819268
:0209D000F8D657
:0E09D200B20EF66E000EF76E000EF86E0F01FC
:1009E0000900F550056F0900F550066F03E1056732
:1009F00001D03DD00900F550006F0900F550016F9E
:100A00000900F550026F09000900F550E96E090070
:100A1000F550EA6E090009000900F550036F09005E
:100A2000F550046F09000900F6CF07FFF7CF08FF64
:100A3000F8CF09FF00CFF6FF01CFF7FF02CFF8FF95
:100A40000F01035302E1045307E00900F550EE6E75
:100A50000307F8E20407F9D707CFF6FF08CFF7FF3F
:100A600009CFF8FF0F010507000E065BBFD7120084
:100A70003235206D6C20776572652052656D6F761A
:100A80006564002D2D003235206D6C207765726510
:100A900020616464656421002B2B0048616E642032
:100AA00072656D6F7665642100506C6561736520B9
:100AB0006B6565702068616E640057656C636F6D6F
:100AC000652120506C6163652048616E640041754A
:100AD000746F6D617469632068616E642067656C12
:0B0AE0002064697370656E736572001E
:040AEC00FF0EE350C6
:100AF0001F6EEF0E01D0F30EE76EE72E7DEF05F0CF
:100B00000C0E1E6EE76AE72E83EF05F01E2E82EFB5
:0A0B100005F01F2E7BEF05F0120028
:060B1A00036A026A100EDE
:100B2000E76ED89006360736023603360B50025C65
:100B30000C50035805E30B50025E0C50035A062A72
:060B4000E72EF0D71200C1
:0A0B4600380EF36E00EE00F00F0E03
:100B500001D81200EA6002D0EE6AFCD7F350E960D7
:060B60001200EE6AFCD752
:0A0B66001EEE00F02EEE00F0F86A1B
:100B70000F9CE9EC04F003EC00F0AEEC03F0FBD7C3
:020B8000120061
:0E0B8200036A080EE76ED890073603360C5053
:0E0B9000035C02E3036E072AE72EF7D712007C
:020B9E00FF0E48
:100BA000E350E84E1200000000D000D000D0E82E44
:040BB000FAD712005E
:050BB40000000002003A
:020000040030CA
:0100010028D6
:010003003CC0
:00000001FF
